{
  "abi": [
    {
      "anonymous": false,
      "inputs": [
        {
          "indexed": false,
          "internalType": "address",
          "name": "owner",
          "type": "address"
        },
        {
          "indexed": false,
          "internalType": "address",
          "name": "vaultAddress",
          "type": "address"
        }
      ],
      "name": "VaultCreated",
      "type": "event"
    },
    {
      "inputs": [
        {
          "internalType": "address",
          "name": "",
          "type": "address"
        }
      ],
      "name": "allVaults",
      "outputs": [
        {
          "internalType": "address",
          "name": "",
          "type": "address"
        }
      ],
      "stateMutability": "view",
      "type": "function"
    },
    {
      "inputs": [],
      "name": "createVault",
      "outputs": [
        {
          "internalType": "address",
          "name": "",
          "type": "address"
        }
      ],
      "stateMutability": "nonpayable",
      "type": "function"
    }
  ],
  "bytecode": {
    "object": "0x608060405234801561001057600080fd5b50611b05806100206000396000f3fe608060405234801561001057600080fd5b50600436106100365760003560e01c80635d12928b1461003b578063732cd7ab1461005f575b600080fd5b610043610088565b6040516001600160a01b03909116815260200160405180910390f35b61004361006d36600461019e565b6000602081905290815260409020546001600160a01b031681565b336000908152602081905260408120546001600160a01b03161561010c5760405162461bcd60e51b815260206004820152603160248201527f596f7520616c726561647920686176652061207661756c74206372656174656460448201527020666f722074686973206164647265737360781b606482015260840160405180910390fd5b60003360405161011b90610191565b6001600160a01b039091168152602001604051809103906000f080158015610147573d6000803e3d6000fd5b50604080513381526001600160a01b03831660208201529192507f5d9c31ffa0fecffd7cf379989a3c7af252f0335e0d2a1320b55245912c781f53910160405180910390a1919050565b611901806101cf83390190565b6000602082840312156101b057600080fd5b81356001600160a01b03811681146101c757600080fd5b939250505056fe60c0604052600480546001600160a01b03191673db8e8e2ccb5c033938736aa89fe4fa1edfd15a1d17905560058054773659d66602777053d6764996e594c3e88af1d58d5363a2e66001600160c01b03199091161790553480156200006357600080fd5b5060405162001901380380620019018339810160408190526200008691620001fb565b6200009133620000ca565b7384b9b910527ad5c03a9ca831909e21e236ea7b066080526005546001600160a01b031660a052620000c3816200011a565b506200022d565b600080546001600160a01b038381166001600160a01b0319831681178455604051919092169283917f8be0079c531659141344cd1fd0a4f28419497f9722a3daafe3b4186f6b6457e09190a35050565b620001246200019d565b6001600160a01b0381166200018f5760405162461bcd60e51b815260206004820152602660248201527f4f776e61626c653a206e6577206f776e657220697320746865207a65726f206160448201526564647265737360d01b60648201526084015b60405180910390fd5b6200019a81620000ca565b50565b6000546001600160a01b03163314620001f95760405162461bcd60e51b815260206004820181905260248201527f4f776e61626c653a2063616c6c6572206973206e6f7420746865206f776e6572604482015260640162000186565b565b6000602082840312156200020e57600080fd5b81516001600160a01b03811681146200022657600080fd5b9392505050565b60805160a05161168b620002766000396000818161024c015281816107a90152818161099401528181610b2b0152610bf80152600081816102250152610a70015261168b6000f3fe608060405234801561001057600080fd5b50600436106101215760003560e01c80637b103999116100ad578063b0d0180e11610071578063b0d0180e14610281578063d2aa789f14610294578063d6edf91d1461029d578063df35f969146102b0578063f2fde38b1461032c57600080fd5b80637b103999146101fc5780638da5cb5b1461020f5780638f9361aa146102205780639a5f3dce146102475780639e281a981461026e57600080fd5b806352b9b973116100f457806352b9b973146101915780636e04ff0d146101a8578063715018a6146101c9578063725a5165146101d15780637365daa8146101e957600080fd5b80632b20e397146101265780633528acb7146101565780634585e33b1461016b5780634739326b1461017e575b600080fd5b600454610139906001600160a01b031681565b6040516001600160a01b0390911681526020015b60405180910390f35b610169610164366004610e56565b61033f565b005b610169610179366004610ea8565b6104d9565b61013961018c366004610f1a565b61062e565b61019a60025481565b60405190815260200161014d565b6101bb6101b6366004610ea8565b610658565b60405161014d929190610f83565b610169610790565b6101d96107a4565b604051901515815260200161014d565b6101696101f7366004610fa6565b610867565b600554610139906001600160a01b031681565b6000546001600160a01b0316610139565b6101397f000000000000000000000000000000000000000000000000000000000000000081565b6101397f000000000000000000000000000000000000000000000000000000000000000081565b61016961027c366004610fca565b6108be565b61016961028f3660046110c7565b61093c565b61019a60035481565b6101696102ab366004610e56565b610ca2565b6102fa6102be366004610fa6565b6006602052600090815260409020805460018201546002830154600384015460049094015492936001600160a01b039092169290919060ff1685565b604080519586526001600160a01b0390941660208601529284019190915260608301521515608082015260a00161014d565b61016961033a366004610fa6565b610d1e565b610347610d97565b6001600160a01b0385811660009081526006602052604090206001015416158061039157506001600160a01b03851660009081526006602052604090206004015460ff1615156001145b6103ee5760405162461bcd60e51b815260206004820152602360248201527f5468697320656d706c6f79656520697320616c726561647920726567697374656044820152621c995960ea1b60648201526084015b60405180910390fd5b6001600160a01b0385811660009081526006602052604081208681556001810180546001600160a01b031916938716939093179092556002808301859055600383018490556004909201805460ff191690558154919061044d83611184565b90915550506001805480820182556000919091527fb10e2d527612073b26eecdfd717e6a320cf44b4afac2b0732d9fcbe2b7fa0cf60180546001600160a01b0319166001600160a01b0387169081179091556040518581527fbe7f6b46c4532a5c90b0500f056ec43ad5e7ac8c4d410c5351ea9a4a4bed2a0a9060200160405180910390a25050505050565b60006104e782840184610fa6565b6001600160a01b03811660009081526006602052604090206002810154600490910154919250421080159160ff16159082906105205750805b15610627576001600160a01b03831660009081526006602052604090206003015461054b904261119d565b6001600160a01b038481166000818152600660205260409081902060028101949094558354600190940154905163a9059cbb60e01b81526004810192909252602482018490529091169063a9059cbb906044016020604051808303816000875af11580156105bd573d6000803e3d6000fd5b505050506040513d601f19601f820116820180604052508101906105e191906111b6565b50836001600160a01b03167f85325c3f7af451784fc5a59ef09ff82491f1a8904b6db7d191b4557e81176fd08260405161061d91815260200190565b60405180910390a2505b5050505050565b6001818154811061063e57600080fd5b6000918252602090912001546001600160a01b0316905081565b6000606060005b6002548110156107875760006006600060018481548110610682576106826111d8565b9060005260206000200160009054906101000a90046001600160a01b03166001600160a01b03166001600160a01b03168152602001908152602001600020600201544210159050600060066000600185815481106106e2576106e26111d8565b60009182526020808320909101546001600160a01b0316835282019290925260400190206004015460ff1615905081801561071a5750805b945084156107725760018381548110610735576107356111d8565b60009182526020918290200154604080516001600160a01b0390921692820192909252016040516020818303038152906040529350505050610789565b5050808061077f90611184565b91505061065f565b505b9250929050565b610798610d97565b6107a26000610df1565b565b6000807f00000000000000000000000000000000000000000000000000000000000000006001600160a01b031663c7c3a19a6003546040518263ffffffff1660e01b81526004016107f791815260200190565b600060405180830381865afa158015610814573d6000803e3d6000fd5b505050506040513d6000823e601f3d908101601f1916820160405261083c9190810190611235565b509650505050505050438167ffffffffffffffff16111561085f57600091505090565b600191505090565b61086f610d97565b6001600160a01b038116600081815260066020526040808220600401805460ff19166001179055517faa3220acf7e5ba30877b582fbf86902166ffb406d39ecaec5f01dd03fc23193a9190a250565b6108c6610d97565b60405163a9059cbb60e01b8152336004820152602481018290526001600160a01b0383169063a9059cbb906044016020604051808303816000875af1158015610913573d6000803e3d6000fd5b505050506040513d601f19601f8201168201806040525081019061093791906111b6565b505050565b610944610d97565b6003541561098d5760405162461bcd60e51b8152602060048201526016602482015275155c1ad9595c08185b1c9958591e4818dc99585d195960521b60448201526064016103e5565b60008060007f00000000000000000000000000000000000000000000000000000000000000006001600160a01b0316631865c57d6040518163ffffffff1660e01b8152600401600060405180830381865afa1580156109f0573d6000803e3d6000fd5b505050506040513d6000823e601f3d908101601f19168201604052610a1891908101906113d2565b8251604051939650919450925063ffffffff1690600090610a4c90899030906207a120908b908b908790859060200161154a565b60408051601f19818403018152908290526004546005549193506001600160a01b037f0000000000000000000000000000000000000000000000000000000000000000811693634000aea09392909116918a91610ab891600160a01b900460e01b9087906020016115d5565b6040516020818303038152906040526040518463ffffffff1660e01b8152600401610ae593929190611606565b6020604051808303816000875af1158015610b04573d6000803e3d6000fd5b505050506040513d601f19601f82011682018060405250810190610b2891906111b6565b507f00000000000000000000000000000000000000000000000000000000000000006001600160a01b0316631865c57d6040518163ffffffff1660e01b8152600401600060405180830381865afa158015610b87573d6000803e3d6000fd5b505050506040513d6000823e601f3d908101601f19168201604052610baf91908101906113d2565b8251929750909550935063ffffffff16610bca83600161119d565b8103610c57576000610bdd600143611642565b60408051914060208301526bffffffffffffffffffffffff197f000000000000000000000000000000000000000000000000000000000000000060601b16908201526001600160e01b031960e086901b16605482015260580160408051601f19818403018152919052805160209091012060035550610c97565b60405162461bcd60e51b8152602060048201526015602482015274185d5d1bcb585c1c1c9bdd9948191a5cd8589b1959605a1b60448201526064016103e5565b505050505050505050565b610caa610d97565b6001600160a01b038581166000818152600660205260408082208881556001810180546001600160a01b03191695891695909517909455600284018690556003909301849055915190917fe780545329ef3b8f728726b7f3558ba366220d880f5873eccab92dea6585f8c491a25050505050565b610d26610d97565b6001600160a01b038116610d8b5760405162461bcd60e51b815260206004820152602660248201527f4f776e61626c653a206e6577206f776e657220697320746865207a65726f206160448201526564647265737360d01b60648201526084016103e5565b610d9481610df1565b50565b6000546001600160a01b031633146107a25760405162461bcd60e51b815260206004820181905260248201527f4f776e61626c653a2063616c6c6572206973206e6f7420746865206f776e657260448201526064016103e5565b600080546001600160a01b038381166001600160a01b0319831681178455604051919092169283917f8be0079c531659141344cd1fd0a4f28419497f9722a3daafe3b4186f6b6457e09190a35050565b6001600160a01b0381168114610d9457600080fd5b600080600080600060a08688031215610e6e57600080fd5b8535610e7981610e41565b9450602086013593506040860135610e9081610e41565b94979396509394606081013594506080013592915050565b60008060208385031215610ebb57600080fd5b823567ffffffffffffffff80821115610ed357600080fd5b818501915085601f830112610ee757600080fd5b813581811115610ef657600080fd5b866020828501011115610f0857600080fd5b60209290920196919550909350505050565b600060208284031215610f2c57600080fd5b5035919050565b60005b83811015610f4e578181015183820152602001610f36565b50506000910152565b60008151808452610f6f816020860160208601610f33565b601f01601f19169290920160200192915050565b8215158152604060208201526000610f9e6040830184610f57565b949350505050565b600060208284031215610fb857600080fd5b8135610fc381610e41565b9392505050565b60008060408385031215610fdd57600080fd5b8235610fe881610e41565b946020939093013593505050565b634e487b7160e01b600052604160045260246000fd5b6040516080810167ffffffffffffffff8111828210171561102f5761102f610ff6565b60405290565b604051610180810167ffffffffffffffff8111828210171561102f5761102f610ff6565b604051601f8201601f1916810167ffffffffffffffff8111828210171561108257611082610ff6565b604052919050565b600067ffffffffffffffff8211156110a4576110a4610ff6565b50601f01601f191660200190565b6001600160601b0381168114610d9457600080fd5b6000806000606084860312156110dc57600080fd5b833567ffffffffffffffff8111156110f357600080fd5b8401601f8101861361110457600080fd5b80356111176111128261108a565b611059565b81815287602083850101111561112c57600080fd5b81602084016020830137600060208383010152809550505050602084013561115381610e41565b91506040840135611163816110b2565b809150509250925092565b634e487b7160e01b600052601160045260246000fd5b6000600182016111965761119661116e565b5060010190565b808201808211156111b0576111b061116e565b92915050565b6000602082840312156111c857600080fd5b81518015158114610fc357600080fd5b634e487b7160e01b600052603260045260246000fd5b80516111f981610e41565b919050565b805163ffffffff811681146111f957600080fd5b80516111f9816110b2565b805167ffffffffffffffff811681146111f957600080fd5b600080600080600080600080610100898b03121561125257600080fd5b885161125d81610e41565b975061126b60208a016111fe565b9650604089015167ffffffffffffffff81111561128757600080fd5b8901601f81018b1361129857600080fd5b80516112a66111128261108a565b8181528c60208385010111156112bb57600080fd5b6112cc826020830160208601610f33565b97506112dd91505060608a01611212565b94506112eb60808a016111ee565b93506112f960a08a016111ee565b925061130760c08a0161121d565b915061131560e08a01611212565b90509295985092959890939650565b805162ffffff811681146111f957600080fd5b805161ffff811681146111f957600080fd5b600082601f83011261135a57600080fd5b8151602067ffffffffffffffff82111561137657611376610ff6565b8160051b611385828201611059565b928352848101820192828101908785111561139f57600080fd5b83870192505b848310156113c75782516113b881610e41565b825291830191908301906113a5565b979650505050505050565b60008060008385036102208112156113e957600080fd5b60808112156113f757600080fd5b6113ff61100c565b611408866111fe565b81526020860151611418816110b2565b602082015260408681015190820152606080870151908201529350610180607f19820181131561144757600080fd5b61144f611035565b915061145d608087016111fe565b825261146b60a087016111fe565b602083015261147c60c08701611324565b604083015261148d60e087016111fe565b60608301526101006114a0818801611324565b60808401526101206114b3818901611337565b60a08501526101406114c6818a01611212565b60c08601526101606114d9818b016111fe565b60e0870152848a0151848701526101a08a0151838701526114fd6101c08b016111ee565b8287015261150e6101e08b016111ee565b908601525050505061020085015190925067ffffffffffffffff81111561153457600080fd5b61154086828701611349565b9150509250925092565b600061012080835261155e8184018b610f57565b90508281038060208501526000825260018060a01b03808b16604086015262ffffff8a16606086015280891660808601526020820160a0860152600060208401526040830193506001600160601b03881660c086015260ff871660e086015280861661010086015250505098975050505050505050565b6001600160e01b03198316815281516000906115f8816004850160208701610f33565b919091016004019392505050565b6001600160a01b03841681526001600160601b038316602082015260606040820181905260009061163990830184610f57565b95945050505050565b818103818111156111b0576111b061116e56fea2646970667358221220c83283bf7643d4ad7fe556155ff5183a14b4341e8cb435ef9ee9354617eec4bf64736f6c63430008110033a26469706673582212204b8d39e937e4a6146de2c329c3a23b6a81e299a435587def121e4a8785937de064736f6c63430008110033",
    "linkReferences": {}
  },
  "methodIdentifiers": {
    "allVaults(address)": "732cd7ab",
    "createVault()": "5d12928b"
  },
  "id": 22
}